:100000000C94882F1895189518951895189518958B
:100010001895189518951895189518950C94832689
:1000200018951895189518950C94A02E1895189554
:100030001895189518951895189518951895189558
:100040001895189518951895189518951895189548
:100050001895189518951895189518950C94F214EC
:10006000189518950C94D718189518950C94031991
:100070001895189518951895189518951895189518
:100080001895189518951895189518951895189508
:1000900018951895189518951895189518951895F8
:1000A000189518950C949526189518956573617296
:1000B000454D564E20676F72504D564E20676F72F9
:1000C000504D564E202020202044434F6574267307
:1000D000554D564E12010002EF020120EB0345215F
:1000E00000100102030109026B00030100803209C4
:1000F0000400000203000000092111010001222375
:1001000000070581034000010705020340000108C4
:100110000B010202020104090401000102020100B4
:10012000052400100104240206052406010205240A
:100130000103020705830340000809040200020AC4
:10014000000000070584024000000705050240008A
:10015000000C03410054004D0045004C0020036D8D
:10016000004500440042004700200043004D00537A
:1001700000490053002D0044004100500014036D5D
:100180000045004400420047002000430044004373
:10019000002A03040309040600FF0901A101150058
:1001A00026FF00750896400009018102964000096B
:1001B00001910295040901B102C000013506BD0498
:1001C00001CE0401C1040EDC040103050106050192
:1001D0001205011C05011F050122050A2505013034
:1001E000050143050156050172050C8B05019405B7
:1001F000019B05019E0501A30501AF0501BB050A91
:10020000BF0501D30501290601D80501FA0501182A
:10021000060B3006FB0000016B0D7B0901A20901F2
:10022000D30901050A01370A01690A01930A01BDD0
:100230000A01E70A01270B014C0B017A0B01A80BFD
:1002400001CB0B01E90B01080C01270C01510C013A
:100250007B0C01A50C01CA0C0CF00C101D0D014407
:100260000DFB0000100F0A00EF0EFE0E000F020F34
:10027000100F090FFE0EEF0EEF0E0B0F2001A6114F
:1002800005110205117EBF1010BF100105110105F7
:100290001101051101051103051101381108BF10E5
:1002A00001BF100405110105110A72110163110249
:1002B0008811FB00200190126912020C128EED11C0
:1002C000010C12011D12011D1204691201461208CF
:1002D000ED1101ED1101EC1101EC11010C1201778E
:1002E000120B5612013512018612FB0010E0F801C4
:1002F000E557FC4F0081089508959A938A930091E1
:10030000840A002309F49DC00091D702002349F01C
:100310000091D8020E94C219002319F000E0009356
:10032000D7020091D7020023D1F505E00093E90040
:100330000091E800102F12FF32C00091AE0200239E
:1003400021F05E9809E10093AC028091F20001C0B7
:100350008A958823D1F09091F100092F0E94C2194B
:100360000023B1F79093D80201E00093D7028A9559
:1003700009F067C00091E8000B7F0093E80000914E
:10038000E8000F770093E8005CC00091E8000B7F65
:100390000093E8000091E8000F770093E8000E94C6
:1003A000E819802F882341F00091AE02002321F04C
:1003B0005F9809E10093AB02882339F0082F0F738F
:1003C00021F001E00093D6020CC000E0FBCF0091C9
:1003D000E8000E7F0093E8000091E8000F7700939B
:1003E000E8008823A9F004E00093E9000091E80008
:1003F000102F15FFFBCF0091E800102F15FFE7CF5E
:10040000882329F30E94EB190093F1008A95F3CF1A
:100410000091D6020023A9F004E00093E9000091C6
:10042000E800102F15FFFBCF0091E8000E7F00932E
:10043000E8000091E8000F770093E80000E00093E7
:10044000D602899199910895229720E028832983E3
:1004500009C024E02A95F1F7288139812F5F3F4FA9
:1004600028833983288139812017310790F3229618
:1004700008959A938A93C80104C008EE13E00E947D
:100480002402FC010197EF2BC1F7899199910895FE
:100490002198299822982A9854985C9808950E9447
:1004A0004D30290180E0D2011296F2018083F801DB
:1004B0000181005F09F467C00E5009F46CC00A9511
:1004C00009F463C0025061F00A95B9F00A95B1F1E0
:1004D0000A95C9F10A9521F00A9509F440C05EC059
:1004E00001E40C9304E7FD0101830DE6028305E6B8
:1004F00003830CE6048385E051C00DE60C9305E40C
:10050000FD01018304E4028302E4038307E404831E
:1005100000E2058303E406830DE4078303E5008717
:1005200009E4018703E502870DE2038704E40487F9
:1005300001E4058700E506878FE030C08D010E9449
:100540009B1384E12BC08C93FD018183828301E0A6
:100550000383848385838683878388E01FC09CE729
:10056000662405C0FD01E60DF81F008363940EE1CB
:100570006016A0F4092F10E00E947B1393950023CE
:1005800089F7862D0BC003E007C000E40C93FD0142
:10059000818382E003C001E00C9381E0F20181835A
:1005A000082FE7E00C945A30F8010081F90100832C
:1005B000418300E008950E945030F801C90100E82D
:1005C000DC010C93238100E017C010E0DF01A00FD5
:1005D000B11F14961C914091C7025091C802DA01D4
:1005E000A95AB94F1C93A7ECB2E04D915C914F5FB3
:1005F0005F4F5C934E930395021738F30181029588
:100600000F7011811F70011721F40E94962701E0DD
:1006100001C000E0FC01018300E0E4E00C945D30E7
:100620000E945030D90101E80C930E94A4270023B6
:1006300009F45CC00091ED021091EC02011769F41D
:100640004CE350E00091C7021091C8020E94A82F0D
:1006500003950093ED0201E003C00091EC020395C5
:100660000093EC020091EC020295007F1091ED02E4
:10067000012BFD01018300E002830091EC02109147
:10068000ED02011758F40CE30383E7ECF2E000817C
:1006900011810C5310400083118303C00091C702E5
:1006A00003838091EC0290E001974CE350E08C01D1
:1006B0000E949A2F20E00DC030E0A801420F531F86
:1006C000FA01E95AF94F4081FD01E20FF31F44831B
:1006D0002395FD013381231778F30091ED021091EA
:1006E000EC02011731F40E94AC2703C000E0FD01C9
:1006F000018300E0E4E00C945D30BA93AA93D90141
:1007000002E80C930E94B028002300E0FD01018361
:10071000C1F00E94C728FD0102830E94CA2820E080
:1007200009C0F80141918F0130E0FD01E20FF31F94
:1007300043832395FD013281231798F30E94B82843
:1007400001C0028308E0A991B9910895BA93AA93D0
:10075000F801D90103E80C9304E00093EE0230E4C1
:100760006EEE72E0AD012381118102810E946F095A
:1007700011960C93119700E012960C93129700912A
:10078000EE0213960C930091EE02A991B99108958F
:100790005B2F0A2EF801D90100810C930181302FC3
:1007A00020E010E000E06281020F261F4381141F49
:1007B0004481040F013342E714074CE7240740E16A
:1007C000340721F00FEFFD01018306C000E0FD01B9
:1007D000018301E00093A80202E0A02DB52F089547
:1007E000F8014081442311F401E001C0008101308F
:1007F00031F401E00093DB02F9010083089500E089
:10080000F901008301E00895BA93AA93D80100E0AA
:100810000093DB023DDE00E00C9301E0A991B99169
:1008200008950E944C30C801D901FC010081005894
:1008300009F10A9511F10A9519F10A9521F1025071
:1008400029F10A5109F463C0015629F0025031F030
:100850000A9559F055C08C0122DE56C00191CF0196
:100860000D939D018C01BCDF4FC000810D938D0164
:10087000CBDF4AC08C019FDE47C08C01D1DE44C073
:100880008C013BDF41C08C0161DF3EC005E80C9369
:100890007180528044240381402A0AE0400E00E027
:1008A000501E662405C0299882010E942402639488
:1008B0006714E8F4FC01048107FF0CC0062D10E06A
:1008C000E00FF11F058107FF03C054985C9A02C036
:1008D000549A5C98FC01048100FFE6CF062D10E0DD
:1008E000E00FF11F058100FFDECF299ADDCF54987C
:1008F0005C9A05E010E00E94390200E0FD010183EE
:1009000040E09D018C0150DEE8E00C9459308C01F0
:100910003FDFFACFEFEEF2E000E0068B078B008FAF
:10092000048B0895EFEEF2E00FEF008300E0018307
:1009300002830383048305830683078710D0089509
:10094000EFEEF2E000E0008B01E0018B02E3028BAE
:1009500000E0038B0895DEDFE5DFF2DF0895089500
:100960000E944B3028970E94C027802F0E94C027EA
:10097000082FEAEBF1E00C94F82F0E94CC27B1D2BB
:1009800077C10E94CC27902F0E94CC27802F0E94F5
:10099000CC27202F182F092F19D26AC10E94CC27EB
:1009A000902F0E94CC27802F0E94CC27202F182F19
:1009B000092F76D11BD35CC1D2DF0E94C027002350
:1009C00011F001E001C000E0EFEEF2E0038B9E01C8
:1009D0002C5F3F4F03890E94F60F002311F40CD3C4
:1009E00047C1043871F400E02CD30C811D812E81A5
:1009F0003F810E942D2800E00E94EB270E941428CE
:100A000037C109D335C10E94E10FD4CF8E010E94B6
:100A100097120023B1F700E014D3088119812A81CD
:100A20003B81E7CF0E94C027002311F001E001C005
:100A300000E00E942510BECF0E944910BBCF0E944B
:100A40008B10B8CF0E949310B5CF0E94C027802F83
:100A50000E94D727A801B901082F0E94AA12AACF85
:100A60000E94C027402E0E94D727C801D9010E94AA
:100A7000D7273A932A931A930A93AC01BD01042D08
:100A80000E94AE10F5C00E94C027402E0E94D727BA
:100A9000C801D9010E94D7273A932A931A930A933F
:100AA000AC01BD01042D0E94AD11E2C00E94C0271F
:100AB000802E0E94D727C801D9010E94D72728017C
:100AC00039010E94C027002311F011E001C010E09D
:100AD0007A926A925A924A92AC01BD01082D0E9404
:100AE000D711C6C00E94C027402E0E94D727C80138
:100AF000D9010E94D7273A932A931A930A939E0109
:100B00002C5F3F4FAC01BD01042D0E94CD1200238C
:100B100009F481CF76CF0E94C027013011F000E99F
:100B200070CF0E94881046CF0E94C0270130B9F7CD
:100B30000E9460103FCF0E9458103CCF0E94D727E0
:100B40000E94691037CF0E94C027802F0E94C027C3
:100B5000813029F7013019F70E946D102BCF8E01DB
:100B60000E947010002331F4088119812A813B8191
:100B700074D27EC046CF0E94D72781D01BCF0E945F
:100B8000C027402E0E94C027502E0E94D727C801A0
:100B9000D9010E94C027202FAC01BD01152D042DC5
:100BA0000E94D21207CF0E94C0270E94DE1202CFFD
:100BB0000E945828C801A0E00091F102043039F4E5
:100BC00003E10E947601013011F400E81ACF082FEA
:100BD000037019F4082F092B41F407E312CF0E9488
:100BE000D7270E948218A02B0497082F092BB9F74A
:100BF0000A2FE0CE0E945828C801A0E00091F1021F
:100C0000043029F403E10E9476010130F1F2082F4B
:100C1000037019F7082F092B39F4DFCF0E94D7276B
:100C20000E949418A02B0497082F092BB9F7E0CF46
:100C300000919502002311F002E3E3CE0E945318C5
:100C4000002329F00E941118002309F0C8CE0FEFED
:100C5000D8CE00919502002379F70E94E612AACE21
:100C60000E94D7270E94D012A5CE01E9D4D100005E
:100C70000E9465282896E9E00C9458300895E1E533
:100C8000F4E041E044A340919502442319F00000B0
:100C900002E3089500A311A322A333A300E0089563
:100CA0009A938A93812F922F005089F00A9559F1D7
:100CB0000A95F9F10A9509F44AC000E942C00E9478
:100CC000CC27102F0A950230C0F41093F002092FA0
:100CD0009A950023A9F1082F8395005019F00A95E1
:100CE00071F3F5CF0E94CC27102F1150135010F044
:100CF0001A9519F40093EF02EACF01E122C00E9495
:100D0000CC270093F102092F9A950023C9F0082FF0
:100D100083950050A1F3005149F40E94C02705308B
:100D200010F000E20EC00093FE02EDCF0E94CC272F
:100D3000EACF0E94E6279801192F082F0E944F132F
:100D400000E089919991089500E00093FF02092F36
:100D50009A950023A9F3082F8395005039F003508A
:100D600059F00A9599F0035029F12DC00E94CC2723
:100D7000002351F301E0E9CF0E94CC27002311F0BA
:100D800001E001C000E000930003E1CF0E94CC2706
:100D9000102F115051F0145041F0155031F01A50ED
:100DA00021F01E5111F0125319F400930103CFCF1B
:100DB00003E2C7CF0E94CC27002311F001E001C05D
:100DC00000E0009303030E94CC27C1CF0E94503063
:100DD000A02F812FB22F91E000E033D10E9455283F
:100DE000A05809F468C0A05889F0AA9529F1AA95DD
:100DF00009F451C0AA95B9F190E0992309F469C0AA
:100E000000E068C00091EF020E9418280B2FBA95ED
:100E1000002399F3082F83950050A1F30A9519F444
:100E20000091F002F1CF00E00E94182890E0EECF90
:100E30000091FE020E9418280B2FBA950023E9F2B8
:100E4000082F8395005019F0005191F303C00091D1
:100E5000F102F0CF00E00E94182890E0EDCF009161
:100E6000FF020E9418280B2FBA95002331F2082F99
:100E700083950050A1F3035019F00A9521F006C0A4
:100E800000910003EECF00910103EBCF00E00E9440
:100E9000182890E0E8CF0B2FBA95002309F4ADCFC6
:100EA000082F0E94760183950E941828F4CF0091A4
:100EB00095020E94EB270B2FBA95002309F49DCFD2
:100EC000082F8395002399F300E00E94182890E0F2
:100ED000F2CF01E10E94EB270E941428E4E00C9479
:100EE0005D308A93802FD2D08050B1F08A9509F47A
:100EF00051C08A9509F450C08A9509F44FC08250B8
:100F000009F44EC08A9509F44EC08A9509F44DC083
:100F10008A9509F45BC066C000E00E94EB2701E0FF
:100F20000E94EB2702E00E94EB2700E10E94EB27E2
:100F300001E10E94EB2702E10E94EB2703E10E94FE
:100F4000EB2704E10E94EB2701E20E94EB2702E27B
:100F50000E94EB2703E20E94EB2700E30E94EB27AD
:100F600001E30E94EB2702E30E94EB2703E30E94C8
:100F7000EB2704E30E94EB2705E30E94EB2706E33F
:100F80000E94EB2703E40E94EB2704E40E94EB2776
:100F900005E426C003E024C002E022C008E020C02F
:100FA00000E00E94EB2701E01BC000E20E94EB275B
:100FB00002E20E94EB2700EA0E94EB2700EB0E946E
:100FC000EB2701EB0E94EB2704EB0AC000E20E9432
:100FD000EB2702E20E94EB2700EB0E94EB2701EBDC
:100FE0000E94EB270E94142889910895002311F094
:100FF00012D0089501D0089500E00E94FF2702E179
:101000000E94EB2700E80E94EB2700E00E94EB27FC
:101010000E94142808958A93802F30DE00E00E94F9
:10102000FF2702E10E94EB2700EA0E94EB2700E085
:101030000E94EB27082F0E94EB270E941428899119
:1010400008950E94FF2702E10E94EB2704E80E9416
:10105000EB2700E00E94EB2708950E945030C80162
:10106000D90100E00E94FF2702E10E94EB2703E87C
:101070000E94EB2700E00E94EB278C019D010E945B
:101080002D280E941428E4E00C945D3000E00E94BA
:10109000FF2702E10E94EB2701E80E94EB2700E016
:1010A0000E94EB2708950E944B30C801D901842E7D
:1010B0003B010E949A282801012BD1F022E18201F4
:1010C0000E94692820E482010E946928AC01BD01C8
:1010D00082010E948B28282D82010E946928930199
:1010E00082010E947F2882010E94A42801E001C0A1
:1010F00000E0E9E00C9458300E945130A02F0E948B
:101100009A28C801012B99F022E18C010E946928DC
:1011100021E48C010E94692820E08C010E9469284A
:101120002A2F8C010E9469288C010E94A428E3E0E8
:101130000C945E300E9451300E94C027802F0E9484
:10114000C027805069F08A9569F08A95C9F08E5160
:10115000A1F18A9549F18950F9F18A95F9F140C0D8
:1011600044D03EC00E94CC27902F0E94CC27802FD5
:101170000E94CC27202F182F092F51D017D530C00F
:101180000E94CC27A02F0E94CC27802F0E94CC2722
:10119000902F00E0FFD4292F182F0A2F73D00E9420
:1011A000EB270E9414281CC00E94CE27012B11F0AF
:1011B00001E001C000E09CD412C000E0EBD41E9B13
:1011C00005C00091A2021091A30202C000E010E04D
:1011D0000E941B2800E0E3CFA7D401C09DD4A9D46E
:1011E0000E946528E3E00C945E300E94C027002333
:1011F00099F4C3D400E00E94EB2701E00E94EB27A2
:1012000002E00E94EB2700E20E94EB2701E20E942D
:10121000EB270E941428089501E09AD408950E94B3
:101220005030B22F80E090E0005099F0005119F05A
:101230000A9531F592E0212F820FA0E0AB1788F4D8
:101240000E94C027202F8C010E946C130196A39549
:10125000F5CF105029F01A9541F01F5041F010C001
:1012600043D400E0E4E00C945D303AD4FACF0E941D
:10127000CC27002311F001E001C000E039D4F1CF08
:1012800001E1F0CF0E945030A22F80E090E00050AA
:1012900091F0005119F00A9501F592E0212F820F8B
:1012A000B0E0BA1790F48C010E947B1301960E9463
:1012B000EB27B395F6CF105029F01A9519F01F506F
:1012C00041F00BC000E00E94EB2700E0E4E00C944A
:1012D0005D301E9BF7CF01E0F6CF01E1F7CF0E9412
:1012E0004B30412E522ECA01DB01632E7724E6E1FA
:1012F000F2E00C94F82F062D10E0EC91F0E033961C
:101300000E171F071CF400E3702EE6C30C91102F7C
:1013100013951C93FC01E00FF71D70820C91102FA8
:1013200013951C93FC01E00FF71D70820C91102F98
:1013300013951C9321E0FC01E00FF71D20834A94D4
:1013400009F4CAC3062D10E0EC91F0E077960E1771
:101350001F07CCF20C91102F13951C9321E0FC0178
:10136000E00FF71D20830C91102F13951C9320E1A3
:1013700010E0FC01E00FF11F208344E10C919C017F
:10138000200F311F04E00E9488130C910C5E0C9317
:101390000C91102F13951C93FC01E00FF71D708228
:1013A0004A9409F499C3062D10E0EC91F0E0F5960B
:1013B0000E171F070CF4A7CF0C91102F13951C9339
:1013C00022E0FC01E00FF71D20830C91102F1395F4
:1013D0001C9320E110E0FC01E00FF11F208342E3A9
:1013E0000C919C01200F311F08E10E9488130C9181
:1013F0000E5C0C930C91102F13951C93FC01E00FC5
:10140000F71D70824A9409F467C3062D10E0EC9131
:10141000F0E0F5960E171F070CF475CF0C91102F06
:1014200013951C9323E0FC01E00FF71D20830C9122
:10143000102F13951C9320E110E0FC01E00FF11F29
:10144000208342E30C919C01200F311F0AE40E948B
:1014500088130C910E5C0C930C91102F13951C9318
:10146000FC01E00FF71D70824A9409F435C3062D84
:1014700010E0EC91F0E0B1960E171F070CF443CF8B
:101480000C91102F13951C9324E0FC01E00FF71D25
:1014900020830C91102F13951C9320E110E0FC0188
:1014A000E00FF11F20834EE10C919C01200F311FB2
:1014B0000CE70E9488130C91025E0C930C91102F84
:1014C00013951C93FC01E00FF71D70824A9409F4F8
:1014D00003C3062D10E0EC91F0E036960E171F07BF
:1014E0000CF411CF0C91102F13951C9325E0FC01E7
:1014F000E00FF71D20830C91102F13951C9322E011
:1015000010E0FC01E00FF11F20834EE10C919C01E3
:10151000200F311F0AE90E9488130C910C5F0C9375
:101520004A9409F4D9C2062D10E0EC91F0E0369609
:101530000E171F070CF4E7CE0C91102F13951C9378
:1015400026E0FC01E00FF71D20830C91102F13956E
:101550001C9322E010E0FC01E00FF11F20834EE11C
:101560000C919C01200F311F0EE90E9488130C91F1
:101570000C5F0C934A9409F4AFC2062D10E0EC9175
:10158000F0E036960E171F070CF4BDCE0C91102F0D
:1015900013951C9327E0FC01E00FF71D20830C91AD
:1015A000102F13951C9322E010E0FC01E00FF11FB7
:1015B00020834EE10C919C01200F311F02EA0E9412
:1015C00088130C910C5F0C934A9409F485C2062D84
:1015D00010E0EC91F0E034960E171F070CF493CE58
:1015E0000C91102F13951C9328E0FC01E00FF71DC0
:1015F00020830C91102F13951C9322E0FC01E00F27
:10160000F71D20830C91102F13951C93FC01E00F04
:10161000F71D70820C91102F13951C9320E2FC0192
:10162000E00FF71D20830C91102F13951C9321E0E0
:10163000FC01E00FF71D20830C91102F13951C93D4
:10164000FC01E00FF71D70824A9409F445C2062D93
:1016500010E0EC91F0E033960E171F070CF453CE18
:101660000C91102F13951C9329E0FC01E00FF71D3E
:1016700020830C91102F13951C93FC01E00FF71D94
:1016800070820C91102F13951C93FC01E00FF71D35
:1016900070824A9409F420C2062D10E0EC91F0E02B
:1016A00034960E171F070CF42ECE0C91102F1395A5
:1016B0001C932AE0FC01E00FF71D20830C91102FF2
:1016C00013951C9321E0FC01E00FF71D20830C9182
:1016D000102F13951C93FC01E00FF71D70820C91E5
:1016E000102F13951C93FC01E00FF71D70824A9494
:1016F00009F4F2C1062D10E0EC91F0E034960E17DB
:101700001F070CF400CE0C91102F13951C932BE0A7
:10171000FC01E00FF71D20830C91102F13951C93F3
:1017200021E0FC01E00FF71D20830C91102F139591
:101730001C93FC01E00FF71D70820C91102F139584
:101740001C93FC01E00FF71D70824A9409F4C4C198
:10175000052D0A950A3010F07394BEC10C91102F1C
:1017600013951C932CE0FC01E00FF71D20830C91D6
:10177000102F13951C9320E1FC01E00FF71D20832F
:101780000C91102F13951C93FC01E00FF71D708234
:101790004A9409F4A1C1052D0A950A30E8F60C9186
:1017A000102F13951C932DE0FC01E00FF71D2083F3
:1017B0000C91102F13951C9320E1FC01E00FF71DF5
:1017C00020830C91102F13951C93FC01E00FF71D43
:1017D0007082052D0A950A3008F0BECF0C91102FAB
:1017E00013951C932EE0FC01E00FF71D20830C9154
:1017F000102F13951C9320E1FC01E00FF71D2083AF
:101800000C91102F13951C93FC01E00FF71D7082B3
:10181000052D0A950A3008F09FCF0C91102F1395D3
:101820001C932FE0FC01E00FF71D20830C91102F7B
:1018300013951C9320E1FC01E00FF71D20830C9110
:10184000102F13951C93FC01E00FF71D7082052DDE
:101850000A950A3008F080CF0C91102F13951C9335
:1018600020E1FC01E00FF71D20830C91102F139550
:101870001C9321E0FC01E00FF71D20830C91102F39
:1018800013951C93FC01E00FF71D70820C91102F33
:1018900013951C93FC01E00FF71D70824A9409F424
:1018A0001BC1052D0A950A3008F056CF0C91102F58
:1018B00013951C9321E1FC01E00FF71D20830C918F
:1018C000102F13951C9321E0FC01E00FF71D2083DE
:1018D0000C91102F13951C93FC01E00FF71D7082E3
:1018E0000C91102F13951C93FC01E00FF71D7082D3
:1018F0004A9409F4F1C05A940AE0501608F02CCF2B
:101900000C91102F13951C9322E1FC01E00FF71DA1
:1019100020830C91102F13951C9321E0FC01E00F04
:10192000F71D20830C91102F13951C93FC01E00FE1
:10193000F71D70820C91102F13951C93FC01E00F82
:10194000F71D70824A9409F4C7C0062D10E0EC918F
:10195000F0E033960E171F070CF4D5CC0C91102F26
:1019600013951C9323E1FC01E00FF71D20830C91DC
:10197000102F13951C93FC01E00FF71D70820C9142
:10198000102F13951C93FC01E00FF71D70824A94F1
:1019900009F4A2C0062D10E0EC91F0E033960E178A
:1019A0001F070CF4B0CC0C91102F13951C9324E15D
:1019B000FC01E00FF71D20830C91102F13951C9351
:1019C00020E1FC01E00FF71D20830C91102F1395EF
:1019D0001C93FC01E00FF71D70824A9409F47CC04F
:1019E000062D10E0EC91F0E0B2960E171F070CF4F4
:1019F0008ACC0C91102F13951C9320E2FC01E00F70
:101A0000F71D20830C91102F13951C9310E0FC01FF
:101A1000E00FF71D208300E00AC02C91322F339590
:101A20003C93FC01E20FF71D70820F5F1F4F0032E5
:101A300017059CF34A9409F44FC0062D10E0EC9171
:101A4000F0E033960E171F070CF45DCC0C91102FAD
:101A500013951C93FC01E00FF71D70820C91102F61
:101A600013951C9310E0FC01E00FF11F10838C9084
:101A7000082D03950C930EEF0E947B13FC01E80DDB
:101A8000F71D00834A9441F1062D10E0EC91F0E03F
:101A900033960E171F070CF436CC0C91102F1395AC
:101AA0001C93FC01E00FF71D70820C91102F139511
:101AB0001C93FC01E00FF71D70826C90062D0395BE
:101AC0000C9300E212E00E947B13860D971DFC012F
:101AD00000834A9409F07A94072DE9E00C94583079
:101AE0000E94CC2701E008950E94CC2700E00895D1
:101AF000002351F026982E980AE010E00E9424025C
:101B000025980E94F52806C00E9409292E98269A39
:101B10002D98259A00E0089526982E980AE010E066
:101B20000E942402259808952E98269A259800E070
:101B3000089500E00E94FF2700E20E94EB2700E8E2
:101B40000E94EB2700E00E94EB270E9414280895D2
:101B50008A93802F00E00E94FF2700E20E94EB277B
:101B600000EA0E94EB2700E00E94EB27082F0E946A
:101B7000EB270E9414288991089500E00E94FF2716
:101B800000E20E94EB2701E80E94EB2700E00E94A0
:101B9000EB2708950E94FF2700E20E94EB2704E84C
:101BA0000E94EB2701E00E94EB270895002311F427
:101BB000C0DF0895CDDF08950E94C027002311F4EF
:101BC00006D002C000E17BD10E94652808959A9357
:101BD0008A9364970E94C0270E94C027005809F486
:101BE00057C00A95A1F10A95E1F10A9509F445C09B
:101BF0000A9509F459C00C5749F00A95B9F00A95AD
:101C0000D9F00A95F9F00A9501F159C07AD100E0AE
:101C10000E94EB2701E00E94EB2702E10E94EB27E4
:101C200000E20E94EB270E9414284BC06AD102E018
:101C30000E94EB2703E0F5CF64D101E00E94EB277F
:101C400002E0EFCF5ED108E0ECCF5BD1ECCF59D111
:101C50008E010E949B139E0104E110E00E94402827
:101C6000E2CF4FD180E090E003C00E94EB270196C5
:101C70008E3000E09007CCF3D6CF43D180E090E0E7
:101C8000823000E090077CF60E94EB270196F8CFA7
:101C900038D104E70E94EB270DE40E94EB2701E412
:101CA0000E94EB2704E4BDCF2CD180E090E08F3080
:101CB00000E090070CF70E94EB270196F8CF00E1B7
:101CC000FED064968991999108959A938A930E947F
:101CD000C027802F0E94C027805059F08A9559F064
:101CE0008A95B1F08E5009F18A9511F18F5399F1CF
:101CF00034C03AD034C00E94CC27902F0E94CC2709
:101D0000802F0E94CC27202F182F092F4FD026C0BC
:101D10000E94CC27902F0E94CC27802F0E94CC2796
:101D2000202F182F092F44D01AC0B4D0B9D017C013
:101D30000E94CC27802FB3D0B3D0813081F4F894A7
:101D4000A895009160000861009360000EE0009388
:101D50006000789404C013D102C000E1EBD00E946F
:101D600065288991999108950E94C027005019F023
:101D70000250A9F018C0B8D000E00E94EB2701E0A3
:101D80000E94EB2702E00E94EB2700E10E94EB2774
:101D900001E10E94EB2700E50E94EB2701C0A4D0DF
:101DA0000E941428089500E18AD0089500E0089563
:101DB0000E945030B02F912F822FA1E000E0AED0D2
:101DC0000E945528B05071F0BA95B9F1B25009F49B
:101DD00046C0A0E0AA2309F455C000E054C000E0CA
:101DE0000E94EB27082F8A950023A1F3813890F7F2
:101DF000092F9395E2E6F2E00C94F82F01E0F0CF82
:101E000003E1EECF09E310E00E941B2893958A9529
:101E1000E9CF02E0E5CF0EEF10E00E947B13E0CFA8
:101E200000E00E94EB27A0E0DDCF0091A20210911C
:101E3000A3020E941B2893958A95082F8A95002358
:101E400049F2813838F6092F9395002371F300E0A9
:101E50000E94EB27A0E0F1CF0AE00E94EB27082FB9
:101E60008A95002309F4B6CF813808F0B3CF092F43
:101E70009395005089F30A9579F300E00E94EB27CF
:101E8000A0E0EDCF01E10E94EB270E941428E4E0DE
:101E90000C945D300E94AB040E94C3130895089512
:101EA00000E00E94FF2701E00E94EB2700E80E946B
:101EB000EB2700E00E94EB270E94142808958A93E4
:101EC000802F00E00E94FF2701E00E94EB2700EA3C
:101ED0000E94EB2700E00E94EB27082F0E94EB27CF
:101EE0000E9414288991089500E00E94FF2701E0D4
:101EF0000E94EB2701E80E94EB2700E00E94EB27FD
:101F0000089500E00E94FF2700E00E94EB2701E80F
:101F10000E94EB2700E00E94EB2708950E94FF2714
:101F200001E00E94EB2704E80E94EB2701E00E94F9
:101F3000EB270895002311F4B3DF0895C0DF08955F
:101F40000E945030B02FA12F0E949A28C801012B67
:101F500099F021E08C010E9469282B2F8C010E94AE
:101F6000692820E08C010E9469282A2F8C010E9498
:101F700069288C010E94A428E4E00C945D300E9442
:101F8000D727013342E714074CE7240740E1340721
:101F900019F001E194DF089501E00093A80280DFC9
:101FA00008959A938A93902F0E947601802F93959B
:101FB000092F0E947601282F302F8901899199914C
:101FC000089500910703002311F400E008950E9492
:101FD0001522002311F00E9479220E943A2500E088
:101FE0000E94D62400E00093070308950E94503019
:101FF000D90100910703002311F001E323C00E94DF
:10200000F51501E00E94D6240E947F210E94FC2445
:10201000802F882389F40E94BB210E944725802FAE
:10202000882351F40E9407220D931D932D933C9316
:1020300084E801E000930703843819F000E00E946F
:10204000D624082FE4E00C945D308A93802F0E9400
:102050001522002369F0882349F00091950200239E
:1020600019F00E945F2402C00E94802200E00FC08D
:1020700000910703002311F401E309C00091060356
:10208000002311F002E303C0082F0E941822899157
:1020900008950E941522002311F400E00895009194
:1020A0000703002311F401E308950E9479220895A3
:1020B00040E000E010E020E030E00E943C24089581
:1020C0000E945F24002311F40E94071A0E944725F2
:1020D000089541E00E943C2408950E94B42408958C
:1020E0009A938A93C80100919502002311F00E94EF
:1020F000071AE1E5F4E000A111A122A133A1FC013E
:10210000008311832283338300E08991999108959C
:102110000E94C02408950E94301D002319F411E08C
:1021200010930603089500E0009306030091F00267
:10213000013061F40E94C81D0E94DC130091F0027E
:10214000013009F43EDF0E94472508950E941522C0
:10215000002381F700E00E941822ECCF0E944E304D
:102160002297A02F08851985C801488359830E94AA
:10217000552828010A2FECE7F2E00C94F82F00E034
:102180000E9421089E010A2FEAD0002339F1009114
:10219000AE02002309F02C9A00910603002379F483
:1021A0000E942216002359F0F201408151819C01C6
:1021B00036952795088119810E94F71A0AC0F20105
:1021C000408151819C0136952795088119810E9493
:1021D000151B0091AE02002309F02C98F20100813A
:1021E0001181080F191F008311838C010E940B2895
:1021F0000E943F25002311F000E002C00E945925F3
:102200000E94EB270E941428A4C000E00E9421082D
:1022100021C0A82FF201408151812A2F30E008818E
:1022200019810E94341BB0E0F201008111810A0F74
:102230001B1F008311830A2F10E00E940B288A1BAA
:102240009040082F092B31F00881198100581F4F49
:1022500008831983082F092B31F0813800E090079B
:10226000C0F2A0E8D7CF0E943F25002329F6C6CFB1
:1022700000919502002311F002E369C000E00E9482
:10228000210806E00E94D10FF201408151819C019A
:1022900068817981060F171F005E1F4F0E94341B53
:1022A000A02FF20100811181080F191F00831183F3
:1022B0008C010E940B28AA2329F00E943F250023AD
:1022C00009F09ACF9BCF00E00E94210806E00E940F
:1022D000D10FF201408151819C0168817981060F03
:1022E000171FDCCF813100E0900710F005E32FC00D
:1022F0000E942108A0E007C008810A0F0E94622006
:102300000E94EB27A395B0E0A817B907A8F3ABCFBD
:10231000813200E0900750F7082F092B39F300E0D5
:102320000E9421080E9404229801AC01F201008160
:1023300011810E948030F20100811181080F191F64
:10234000008311838C010E940B288DCF04E30E942F
:102350000B082296EAE00C945B3024960895BA9319
:10236000AA93D901005BA1F00250F8F00350C8F025
:102370000250B9F00A95A9F00850B8F0045040F0A6
:102380000050035070F0095561F0025051F00DC03B
:1023900000E00E94D10F2D913C91200F311F3C9302
:1023A0002E9301E0A991B991089500E0FBCF0E941E
:1023B0004E302297402E88859985488359830E9404
:1023C0003F25002319F40E944725ABC05524042D56
:1023D000E4EBF2E00C94F82F53940E94E627D80126
:1023E0009E01042DBCDF002309F49DC00091AE02C4
:1023F000002309F02C9A652DAD019C0108811981FB
:102400000E94661C1091AE02112309F02C98002343
:10241000D1F60E94FC0787C00E94E62724EC4216F2
:1024200011F461E001C060E0A8019C0108811981FC
:102430000E94821C002369F3C6CF8130950511F0FC
:1024400005E36FC00E94C027202F0881198105383D
:1024500032E1130729F400914206002309F02460B9
:10246000088119810E94211CE5CF0E94E627D8012E
:1024700006E00E94D10FAD019C0168817981060FB1
:10248000171F0E94711B002321F69DCF0E94E62793
:10249000280106E00E94D10FD801A2019C01088109
:1024A0001981A00FB11F90968D01EBCF0E94E627F6
:1024B000D8018C010197012B09F4ABCF2881398118
:1024C000F9013196E883F9831D91022F0E9454206F
:1024D000F0CF0E94E627A8019C01088119810E9483
:1024E000711B002309F095CF0E9459251AC00E9444
:1024F000E627A80100910603002331F49C0108811E
:1025000019810E94E41D96CF61E08FCF0E94E627DB
:102510009801082F0E94D11D002309F47ACFE4CF3F
:1025200004E30E940B082296EAE00C945B30BA9315
:10253000AA93D80100910703002311F401E307C017
:102540000E9407220D931D932D933C9300E0A991C7
:10255000B991089510910703112311F401E308952F
:10256000005059F00350A1F00A9551F00A9541F03E
:102570000A9551F00A9541F00EC00E94131C08956F
:102580008A010E944A1C08958A010E94EF1B089547
:102590000E94E11B089504E3089500E9249608953C
:1025A00000E90895013011F000E808952330E1F7C3
:1025B0001130D1F701E00E94A6230895102F1A953B
:1025C00011F000E808950E94D323089500E90895CA
:1025D000E8E0F3E000E002830091E2000460009391
:1025E000E20000E0008301E0018308950091840A85
:1025F000002309F44CC000910A03083008F447C0D6
:1026000000E000930A0302E00093E9000091E80073
:10261000102F12FF3CC02091F20000E008C0309162
:10262000F10010E0F801E55FFC4F308303950217DD
:10263000B0F30091E8000B7F0093E8000091E80000
:102640000F770093E8002BE433E00BE013E00E94E7
:10265000110401E00093E9000091E800102F15FF3C
:10266000FBCF00E008C010E0F801E55BFC4F1081F3
:102670001093F10003950034B0F30091E8000E7F51
:102680000093E8000091E8000F770093E8000895B8
:1026900000910A03039500930A03089508950D011C
:1026A000602F70E0412F50E0640F771F6134750791
:1026B00014F000E00FC0402FABE8B3E0A40FB51F4B
:1026C00004C0F90101919F010D93012F1A95002378
:1026D000C1F701E0D0010895003034E0130750F451
:1026E000F999FECF12BD01BD20BD0FB7F894FA9A3B
:1026F000F99A0FBF0895003024E0120710F00FEF91
:102700000895F999FECF12BD01BDF89A00B508955C
:102710000E944E30D801C901542E442407C08D01B7
:10272000EADF1196FC010193CF0143944514B8F3FD
:10273000E6E00C945B30BA93AA93D80144E19D0182
:1027400004E010E00E9488130C910F3F39F444E13B
:1027500050E020E832E08D010E94803010E00EC091
:102760000C91003338F00C910A53073018F00C919B
:102770000B3510F008E50C9311961395143180F386
:10278000A991B9910895E5E9F2E000E010E0008731
:1027900001870287038701E0048700831183128386
:1027A00013831483158316831783089500E0009321
:1027B00095023E9A469A089501E0009395023E9A4A
:1027C00046980895BA93AA9371D06E98769A00E2CB
:1027D00012E00E947B13A2EAB2E007FB1EF001E0C8
:1027E0000093AE0200E212E00E947B1301FB66F44C
:1027F00001E06BD085D00D911C911197083823E131
:10280000120721F400E001C004E05FD0C3D0A8D0DB
:102810000091D70001600093D7000E94952E0E947E
:10282000E8120E947C010E94AE150091AE020023C6
:1028300039F0249A2C98569A5E9A579A5F9A02C059
:102840003E9A469808E813E114960D931C93009164
:10285000AD02002309F024D10E949D2E0E94F612A1
:102860000E947D010E94B8150E949E220091A8023C
:10287000002369F301E00093E9000091E800102FC4
:1028800015FFFBCF02E310E00E9439020091D8004F
:102890000F770093D80002E310E00E943902F89409
:1028A00003E013D077D00C940038D1CFF894A895DA
:1028B00004B7077F04BF00916000086100936000C7
:1028C00000E00093600078940895102F1F70163078
:1028D000B0F420E82093610010936100002311F40C
:1028E00000E103C0013021F408E00093A90208953B
:1028F000043011F401E0F9CF00E00093A90208953B
:1029000006E800937A000EE500937C0004E610E0F0
:102910000E94240200917A00006500937A000091E1
:102920007A00102F14FFFBCF00917A00006500930E
:102930007A0000917A00102F14FFFBCF00917800ED
:10294000109179000A3121E0120730F004EE1CE00A
:102950000093A2021093A30200E000937A0008956E
:1029600003E005BD0091A902083011F400E806BD9E
:1029700000916E00016000936E00089500916E005A
:102980000E7F00936E00089500916E000160009329
:102990006E00089500E000936E000093AA0208956F
:1029A000EFEAF2E00081000F00831C9B03C000816E
:1029B0000160008301811081101799F00F3F41F4ED
:1029C0001081112329F4549A5C9800E00183089542
:1029D000002339F400810F3F21F454985C9A0FEFE3
:1029E00001830895BA93AA938A93FA93EA933A9249
:1029F0002A921A920A927A936A935A934A933A9332
:102A00002A931A930A938FB7A2EAB2E00091A9021F
:102A1000083011F400E806BD0091AA02002309F075
:102A2000BFDF12960D911C910F5F1F4F1C930E93E9
:102A3000129714960D911C911597012B41F0149645
:102A40000D911C91015010401C930E93149700910E
:102A5000AE02002391F00091AB02102F1A95109353
:102A6000AB02002309F45F9A0091AC02102F1A9573
:102A70001093AC02002309F45E9A8FBF099119915B
:102A800029913991499159916991799109901990B8
:102A900029903990E991F9918991A991B991189565
:102AA000E2EAF2E00091840A002319F000E00387D3
:102AB000089504811581012BE9F40485002311F0A8
:102AC000249801C03E9800E0038700E212E00E94D3
:102AD0007B1302FB7EF00FEF009364000093650010
:102AE00005E003BF889500E003BF009364000093F6
:102AF00065003E9A08950BEC13E000934D0410938B
:102B00004E0400E810E000934B0410934C04089529
:102B10000BEC13E00895AD01EBECF3E0E00FF11FD7
:102B2000118100E0D9010D931C93008110E0D901BF
:102B30002D913C91200F311F3C932E9305E9018389
:102B400008E9008301E0DA010895EBECF3E0E00F1F
:102B5000F11F89011183008301E008950E94AB04F5
:102B60000E94B82800E000934F0400935004089599
:102B70009A938A930E94B8270023A9F00E94C02745
:102B80000E3079F40E94C0270E94CE27C80100931E
:102B90004F04109350040E94C027202F8C0106D0B0
:102BA00002C00E946528899199910895205039F0BA
:102BB0002A9541F0215149F02E5051F008950E947C
:102BC000DC0D08950E94650E08950E94B0040895DA
:102BD0000E949A0808950EE00E94EB2700914F048E
:102BE000109150040E941B280895BA93AA9300E004
:102BF00005C020E0E00FF21F20830395E1E5F4E03B
:102C00000032B8F30FEF00A301A302A303A300E077
:102C100004A305A307A300A706A307C020E0DF01C4
:102C2000A00FB21F99962C9303950430B8F3EEE7EA
:102C3000F4E000E00083018302830E947B15A991E8
:102C4000B991089500911305002311F001E0089552
:102C500000E0089540E04093110540931205409331
:102C60001305E1E8F4E00AC00087008301830283D2
:102C7000038304830583068307833996042F4395D2
:102C8000003100E088F300931405089500911405C5
:102C90000895E1EBF2E02481358100E02030300737
:102CA000C1F0428153814030500799F02030300705
:102CB00081F0268137812030300759F02085318519
:102CC0002030300731F0228533852030300709F07D
:102CD00001E00093140508950E944C302801390149
:102CE00080E041E0A5D0D801012B61F0FD01008515
:102CF000023039F401E00087009112050A95009333
:102D000012053DC0A1E8B4E0E0911305F0E00091A8
:102D10001105E00FF81F71971CF000E031C0199603
:102D2000082F8395003120F4FD0100850023B9F7B9
:102D3000813198F781EB92E082019301FC0140859B
:102D40005185FA010995002341F3FC0102851385A1
:102D5000F8010995A80160E070E0820193010E94EA
:102D6000CC2FFD010483158303E000874D925D9213
:102D70006D927C920091110503950093110501E07D
:102D8000E8E00C9459300E944C30002490911305D7
:102D9000E1E8F4E002C09A9539969923D9F0802DA4
:102DA00003948031B8F480858130B1F74080518040
:102DB00062807380401651066206730660F340809D
:102DC000518062807380441555056605770518F3B8
:102DD0008F0102C000E010E0E8E00C945930BA9393
:102DE000AA93F8010A801B802C803D80399615E05B
:102DF000E131F107B8F400850130C1F7008111819C
:102E000022813381041715072607370778F30081DD
:102E1000118122813381001611062206330630F318
:102E20008F0102C000E010E0A991B99124960895A5
:102E3000642F70E050911305662319F0409111053D
:102E4000540F552319F400E010E00895E1E8F4E090
:102E500002C05A953996552311F1472F7395403189
:102E6000F0F44085413051F400801180228033809D
:102E7000001611062206330691F05A95662351F387
:102E80004085433019F04085423021F700801180A1
:102E9000228033800016110622063306D1F6552310
:102EA00091F28F01089541E0C3DF202F212B11F40F
:102EB00000E00895F8012085233081F420E0208788
:102EC00026832783208321832283238324832583CE
:102ED000009111050A95009311050EC0208521303F
:102EE00041F422E02087009112050395009312051A
:102EF00003C000850230E1F601E008959A938A93B9
:102F0000CA0140E095DF202F212B11F400E00BC017
:102F1000F80126813781FC0120833183F801008587
:102F20000130A1F701E089919991089510E0E1E85D
:102F3000F4E001C03996012F1395003128F4008583
:102F400001FFF8CF8F01089500E010E0089530E010
:102F5000E1E8F4E001C03996232F3395203150F495
:102F60004481558140175107B1F7208521FFF3CFE8
:102F70008F01089500E010E008950E944E3028016E
:102F8000A0E0F2018481958127C00085023001F51F
:102F9000468157810081118122813381E091B702FE
:102FA000F091B802099500E0F201008706830783DB
:102FB0000083018302830383048305830091130547
:102FC0000A9500931305009112050A9500931205C6
:102FD000A3958C01BCDF2801042D0529F1F0F20135
:102FE0000085033091F6A2014A5F5F4F0081118195
:102FF00022813381E091B502F091B602099501E09A
:10300000F2010087009111050A95009311050091C6
:103010001305039500931305DBCF0A2FE6E00C940C
:103020005B300E944C3000919502002339F54090AE
:10303000110500911205400E11F401E020C000912D
:1030400014050023A1F41AC0FC0164807580A1EB73
:10305000B2E08301ED91FC91119709958C018DDF10
:10306000401A8301FD0122813381F9010995442031
:1030700021F35CDFC801012B39F7000000E0E8E034
:103080000C945930000000E00895000000E008951D
:10309000000000E00895000000E0089500E00895B9
:1030A00000E010E0089500919502002319F000005F
:1030B00000E0089540E0E1E8F4E00BC00085013055
:1030C00039F402E000870091120503950093120580
:1030D0003996042F4395003198F40085033071F739
:1030E00000E0008706830783008301830283038354
:1030F00004830583009111050A9500931105E8CF1B
:1031000001E0089540919502442319F0000002E384
:10311000089500FB16F406E30895DEDD002311F0A8
:1031200000E0089501E8089540919502442319F0C4
:10313000000002E3089500FB16F406E30895B3DEF1
:10314000002311F000E0089500E808950E944A303D
:10315000280139018A849B84C201D301840F951F01
:10316000A61FB71F81509040A040B040AC01BD01E8
:103170000ADE17C0F801408151819201421B530BB6
:103180009401240F351F5781F9015183F8014681BD
:10319000F9014083BA93AA939A938A93A201B30147
:1031A0001EDE202F212B31F7ECE00C945730FA93E0
:1031B000EA933A932A931A930A933FB7009197059B
:1031C0000038C8F42091CE000091950510E0F80178
:1031D000EB5EFA4F208300919505039500939505CA
:1031E00000919505003811F410939505009197050D
:1031F0000395009397053FBF099119912991399142
:10320000E991F9911895FA93EA932A931A930A93FC
:103210002FB700919A050023D1F00091990510E095
:10322000F801E456FA4F00810093CE000091990511
:1032300003950093990500919905003811F41093B6
:10324000990500919A050A9500939A0503C000E03C
:1032500000939B052FBF099119912991E991F9914B
:1032600018950E944D30C801D901442E552E662E66
:10327000E5E9F5E000E0008301830383048316D0D1
:103280008C019D0135D0052D29D0042D1ED0062D91
:1032900013D00091C900006C0093C9000091C900CF
:1032A00008610093C900E7E00C945A300091C9000E
:1032B000077E0093C90008951091CA00197F03701A
:1032C000000F102B1093CA0008951091CA001F7CA4
:1032D0000295007F102B1093CA0008951091CA0028
:1032E000177F000F000F000F102B1093CA000895D6
:1032F0000E94483028013901409161004F7000E080
:1033000014E224EF30E00E94C42F003442E414079A
:103310004FE0240740E0340749F40091C800026000
:103320000093C8000CE04093CD0027C04091C80036
:103330004D7F4093C80044E00E94BC2FD901A201F8
:10334000B3019D010E94CC2F015010401093CD007D
:103350000093CC0042015301B694A79497948794AC
:1033600080149104A204B30450F40091CC00109195
:10337000CD000F5F1F4F1093CD000093CC00ECE009
:103380000C945530AD01102FE5E9F5E006810023DE
:1033900029F41093CE0001E0068318C001E0F894F0
:1033A0002581203888F4238130E0D901A456BA4F12
:1033B0001C931381139513831381103809F43383FD
:1033C00015811395158301C000E07894DA01089502
:1033D0000091970508959D0100E0F894E5E9F5E076
:1033E0001281112389F0018110E0D801AB5EBA4F40
:1033F0000C911181139511831181103811F410E093
:10340000118312811A9512837894D901089506E0E8
:103410000E94D10F0C5E1F4F0E94EC1F20E030E095
:1034200040913F06442319F43695179507950150AE
:10343000104020403040E1E5F4E000A311A322A3B6
:1034400033A308959A938A93E1E5F4E080A191A1D2
:1034500000913F06002311F4880F991F06E00E9497
:10346000D10F9C010C5E1F4F0E942B2089919991D6
:103470000895CDDF00E00093750408950091750470
:10348000002341F0DFDF00E00093750410E09FD0DF
:103490000E94D7240895102F09E00E94542005E0CF
:1034A00010E00E9424020E943F25089511E004E0EC
:1034B0000E9454200E943F25089505E00E9462204A
:1034C00000FB16F401E0089500E0089505E00E9475
:1034D000622004FB16F401E0089500E008950DE079
:1034E0000E94622008950BE00E94622004FB16F403
:1034F00001E0089500E008950BE00E94622003FBC4
:1035000016F401E0089500E008950BE00E946220A7
:1035100002FB16F401E0089500E008950BE00E941C
:10352000622001FB16F401E0089500E008950BE02D
:103530000E94622000FB16F401E0089500E0089567
:103540000CE00E9462200770089506E00E94D10FEF
:10355000045F1F4F0E94EC1F0895002311F019E52E
:1035600001C010E008E00E94542008958A9301E011
:10357000F4DF84E60BE00E94622005FB5EF400E0CD
:10358000ECDF84E60BE00E94622005FB46F00E941F
:10359000472503C08A9571F70DE3899108958A95AF
:1035A00089F7FACF8A93802F06E00E94D10F282F47
:1035B000085F1F4F0E94052012E004E00E94542083
:1035C0000E943F258991089504E0ECDF08959A93C5
:1035D0008A93C80106E00E94D10F9C01005F1F4F33
:1035E0000E942B200E943F258991999108950E9465
:1035F0004E302801C901DA0118D0002300E091F013
:103600000E94D10F401A510ABA93AA93880F991FAA
:10361000AC0160E070E0820120E030E00E94A6187A
:103620000E943F25E6E00C945B300E945030D901A7
:10363000CA01A13820E0B20718F0000000E011C074
:103640000E9474200E943F250023C1F3A23000E0B5
:10365000B00718F08D010E945A219C018D010E9433
:103660000521E4E00C945D300E944E30C801290130
:10367000DA0101E0401600E0500639F48C010E94A6
:10368000D71F0C930E943F2529C002E0401600E09E
:10369000500651F48C010E94D71F0C9301968C01A7
:1036A0000E94D71F1196EDCF01E04016500618F08A
:1036B000000000E013C08C010E9474200E943F258E
:1036C0000023B9F302E0401600E0500618F0820132
:1036D0000E945A219D0182010E94FA20E6E00C948A
:1036E0005B300E944E30C8012901DA01042D052902
:1036F00009F4000001E0401600E0500631F42C917E
:103700008C010E94052001E022C002E0401600E08A
:10371000500641F42C918C010E94052011962C91A9
:103720000196EECF01E04016500618F0000000E0D0
:103730000EC08C010E9474200E943F250023B9F323
:1037400082010E945A219D0182010E948C20E6E0A4
:103750000C945B300E945030822FDA01813051F49A
:103760002C9130E011965C91230F351F0E942B2085
:1037700001E013C0813818F0000000E00EC00E9484
:1037800074200E943F250023C1F3082F10E00E94FF
:103790005A219D01082F0E94BF20E4E00C945D3067
:1037A000980102E00E9433210E943F2508958A93E8
:1037B000802F04E00E94D10F282F0E9405208991BC
:1037C00008950AE0DAD0002311F40CE3089506E02E
:1037D000EEDF0AE0D2D00023C1F300E008950E949A
:1037E0004E30D8010AE0C9D0002311F40CE318C010
:1037F00003E00E94D10F280180E090E007C02FEF86
:103800008D01080F191F0E9405200196841595054A
:10381000B0F302E0CCDF0AE0B0D0002339F300E0DF
:10382000E6E00C945B300AE0A8D0002311F40CE32E
:10383000089505E0BCDF0AE0A0D00023C1F300E05A
:1038400008950E944F30D801422E0AE096D00023FE
:1038500011F40CE31CC004E00E94D10FC8012A2F10
:10386000085F1F4F0E940520AB2F2A2F8C01075F96
:103870001F4F0E940520242D06968C010E940520D2
:1038800007E095DF0AE079D0002319F300E0E5E0D6
:103890000C945C309A938A93C8010AE06ED000239E
:1038A00011F40CE310C000E00E94D10F800F911FB3
:1038B00021E08C010E94052002E079DF0AE05DD062
:1038C000002379F300E08991999108950E944D3089
:1038D000C801D9012A01662E02E00E94760110E09B
:1038E000A017B10711F005E30AC0662011F063E0EC
:1038F00001C061E071E0A2019D018C010BD0E7E005
:103900000C945A30662311F063E001C061E070E06E
:1039100001D008950E944C30C8012901DA01662EB9
:10392000772E0AE02AD0002311F40CE323C004E030
:103930003EDF0AE022D00023C1F37720AD0171F011
:1039400056944794242D8C0105DF002311F001E0EB
:1039500001C000E0002339F40FEF0CC092018C018C
:10396000C0DE0023C9F3062D22DF0AE006D00023C3
:10397000E1F200E0E8E00C9459300E94503004E09D
:103980000E94D10FD8018AE004C002E010E00E943A
:1039900039028D010E5F1F4F0E94D71F037011F473
:1039A00001E005C0082F8A95002379F700E0E4E0E4
:1039B0000C945D308A9360979E01285F3F4F890188
:1039C000ECEAF0E048E050E00E943D309E01285FC4
:1039D0003F4F00E00E94162107E00E94622003FB97
:1039E00016F005E43AC088DD0023D9F49E01890170
:1039F000E4EBF0E048E050E00E943D3000E00E943F
:103A000016210E943F25002319F40E94472525C056
:103A100007E00E94622004FB26F70E943F25002356
:103A2000A1F301E09ADD05E010E00E94390200E018
:103A300094DD05E010E00E9439028AEF04C004E042
:103A400010E00E94390273DD002311F400E005C08C
:103A5000082F8A95002399F70CE3609689910895C1
:103A60009A938A9328970E943F25002319F40E9475
:103A7000472574C065DD802F813071F44FDD002350
:103A800059F49AEF5DDD802F813031F4092F9A953A
:103A90000023C1F703E462C000910303002329F06F
:103AA00000E00093030386DFE2CF843099F324DD46
:103AB000002311F000E052C00E943F250023B9F21C
:103AC00004E60E949A24002311F406E447C02FDD87
:103AD000002311F004E442C00E943F25002339F284
:103AE0000BDD002339F70E943F25002301F29E01E0
:103AF0008901ECEBF0E048E050E00E943D3000E04E
:103B00000E9416210E943F25002309F4B0CF07E050
:103B10000E94622004FB16F005E420C001E01DDDD8
:103B200005E010E00E94390200E017DD05E010E03A
:103B30000E9439020E943F25002309F498CF8AEFA2
:103B400004C004E010E00E943902D6DC002309F032
:103B5000B1CF082F8A950023A1F70CE3289689910D
:103B60009991089528979E018901E4ECF0E048E0DE
:103B700050E00E943D3000E00E94162107E00E94C4
:103B8000622001FB16F005E401C000E028960895CC
:103B900001E0E3DC05E010E00E94390200E0DDDC3A
:103BA0000895085029F0085049F0005149F00AC022
:103BB00000E00E9416210E944725089501E0F9CFF8
:103BC00002E0F7CF05E308950E944D3028972801C1
:103BD000C901DA019E018901ECECF0E048E050E017
:103BE0000E943D3000E00E9416210E943F250023E4
:103BF00009F462C007E00E94622005FB16F005E4AC
:103C00005DC00E943F25002309F456C0AFDC0023AD
:103C100009F054C00E943F25002309F44DC00AEF6B
:103C2000602E04C004E010E00E9439026EDC002324
:103C300029F00E943F25002361F43EC00E943F25E9
:103C40000023D1F1062D6A94002361F78FDC0CE389
:103C500035C0AD019C01820144DD002311F401E770
:103C60002DC00E943F25002339F112E00AE00E9496
:103C700054200E943F250023F9F00AEF602E08C06F
:103C8000062D6A94002311F304E010E00E9439022B
:103C90003CDC002349F410E207E00E9454200E941B
:103CA0003F25002331F408C00E943F25002341F73F
:103CB00003C05CDC002311F40E9447252896E7E04E
:103CC0000C945A3001E00E9462200895015069F07E
:103CD0000A9569F00A9569F00A9549F00A9559F034
:103CE0000A9559F00A9559F00CC007E108950CE1C6
:103CF000089509E1089505E4089508E308950AE1A7
:103D0000089500E00895479840E076981D910000DE
:103D100000000000000000000000000000000000A3
:103D2000179518F00000769803C0769A4395000026
:103D30000000000000000000000000000000000083
:103D40000000179518F00000769803C0769A439506
:103D50000000000000000000000000000000000063
:103D600000000000179518F00000769803C0769ABE
:103D7000439500000000000000000000000000006B
:103D8000000000000000179518F00000769803C0AE
:103D9000769A43950000000000000000000000003B
:103DA0000000000000000000179518F00000769851
:103DB00003C0769A43950000000000000000000058
:103DC00000000000000000000000179518F000003F
:103DD000769803C0769A439500000000000000002A
:103DE000000000000000000000000000179518F01F
:103DF0000000769803C0769A43950000000000000A
:103E00000000000000000000000000000000179506
:103E100018F00000769803C0769A439500000000E1
:103E200000000000000000000000000000004795B6
:103E300020F000000000769802C00000769A000092
:103E40000000000000000000000000000000000072
:103E5000000000000000769A40E44A95F1F70A95C8
:103E600040E0041351CF0895B09A11E010938500FB
:103E7000109384001093810060E0B09996C0669919
:103E8000FCCF479A6699616047980000000030E0D7
:103E900010E01695000000000000479A669910682F
:103EA0004798000000000000000000003127169530
:103EB000000000000000479A6699106847980000CB
:103EC00000000000000000003127169500000000EF
:103ED0000000479A669910684798000000000000AB
:103EE0000000000031271695000000000000479AEE
:103EF000669910684798000000000000000000006C
:103F000031271695000000000000479A6699106856
:103F100047980000000000000000000031271695BF
:103F2000000000000000479A66991068479800005A
:103F3000000000000000000031271695000000007E
:103F40000000479A6699106847980000000000003A
:103F50000000000031271695000000000000479A7D
:103F600066991068479800000000000000000000FB
:103F7000312700000000000070E8479A6699372753
:103F8000479837FD68600000000000000000000056
:103F9000000000000000479A669B626047981D93EE
:103FA0000A9509F061CF062F0895046008952497BB
:103FB00025E5288324E02983202F2A83012F0B83E2
:103FC00031E024E08E010E949E25002311F008813B
:103FD00001C000E024960895249725E5288325E074
:103FE0002983202F2A83012F0B8332E024E08E01C6
:103FF0000E949E25002329F0198100E02881022BD0
:1040000002C000E010E0249608958A932497822F3E
:1040100025E5288324E42983202F2A83012F0B837D
:1040200031E024E08E010E949E25002389F0088162
:10403000003471F4888331E021E08E010E949E25D6
:10404000002331F00881003419F007E40E94512563
:104050002496899108959A938A932497C90125E516
:10406000288325E42983202F2A83012F0B8331E025
:1040700024E08E010E949E25002391F008810034E7
:1040800079F48883998331E022E08E010E949E2595
:10409000002331F00881003419F007E40E94512513
:1040A0002496899199910895239725E528830F7087
:1040B000006C09831A8330E023E08E010E949E2564
:1040C00023960895229715E518830F7000680983D9
:1040D00031E022E08E010E949E25002311F008812C
:1040E00001C000E022960895259725E5288329E65A
:1040F0002983202F2A83012F0B8331E024E08E01B6
:104100000E949E25002331F00881003419F007E455
:104110000E945125259608950E9450302397C8018A
:10412000D90105E5088304E609830C910A8331E08F
:1041300023E08E010E949E250023B9F008810034FF
:10414000A1F411960197082F092B69F031E021E0C5
:104150008D010E949E25002311F400E00CC00C91FB
:10416000003479F305C001E006C008810034A9F3EA
:1041700007E40E9451252396E4E00C945D300E94F0
:104180004E302497802FD90105E5088305E6098381
:10419000FD010191DF010A830D910B8331E024E0E1
:1041A0008E010E949E250023D9F008810034C1F4BD
:1041B0002D0104C002E0400E00E0501E8A9571F00F
:1041C00031E022E082010E949E25002311F400E0EC
:1041D0000DC0F2010081003469F305C001E006C0A2
:1041E00008810034A1F307E40E9451252496E6E0FB
:1041F0000C945B30F90125E5208324E22183302FE4
:1042000022E08F010E949E250895F90125E5208373
:1042100025E22183302F330F22E08F010E949E255B
:10422000002311F001E0089500E008950E9451304C
:104230002297A02FC90105E508830A2F006E098384
:1042400030E022E08E010E949E2530E04A2F08E0F7
:1042500010E00E94A22F202F8C010E949E25229602
:10426000E3E00C945E309A938A93A197C90115E517
:104270001883102F146E1983402F08E010E00E945D
:10428000A22F302F22E08E010E94DA25002311F0A8
:1042900001E001C000E0002311F400E007C040E2AB
:1042A00050E09E018C010E94803001E0A19689912E
:1042B0009991089524970150104025E5288321EA1B
:1042C00029830A831B8330E024E08E010E949E250F
:1042D00024960895ECE1F6E001A712A701E003A7F8
:1042E000089500914706002349F00091450610917A
:1042F00046060E94E71A00E0009347060895BA9325
:10430000AA93ECE1F6E000E000931C060093480657
:1043100000931D0608C020E0ACE1B6E0A00FB21F7C
:1043200012962C9303950032B0F30FEF00933E06E4
:1043300000933F0604A305A300E007A300A701A77D
:1043400002A700934706E9E4F6E0048305830083AF
:1043500001830283038301E0068300E212E00E94EE
:104360007B1300FB16F401E001C000E0009342065D
:10437000A991B99108959A938A930EE116E00E944B
:10438000D01B0023F1F142E050E026E236E00DEBD5
:1043900012E00E946830012B29F400912806005396
:1043A00000933E0642E050E029E236E000EC12E0E5
:1043B0000E946830012B29F400912B0600530093D2
:1043C0003F0600912E060D34E1F480912D0690E019
:1043D000C09748EE53E08C010E949A2FECE1F6E082
:1043E00004A315A380912F0690E0C09744E650E007
:1043F0008C010E949A2F24A135A1200F311F24A3E4
:1044000035A38991999108950EE116E00895ECE1A4
:10441000F6E00581302F20E010E000E06481262BDB
:104420004381142B4281042B089500911C060895AA
:104430008A93802F0E94F5150E947C1A002331F484
:1044400004E678D2002311F406E451C00E94971AC2
:10445000002311F004E44BC00E94B21D002309F0B8
:1044600046C00E94DC1300E000939602009398027D
:1044700055D0882331F023D20E94D6130E94391AD6
:104480003FD00E944725002381F50E942A1603E1B0
:1044900013E20093B1021093B20201E313E200931E
:1044A000B3021093B4020FE613E20093B502109327
:1044B000B60202E813E20093B7021093B80205E9CE
:1044C00013E20093B9021093BA0201EA13E20093D7
:1044D000BB021093BC020E9449160E94461600239C
:1044E00009F4000001E000931C060E944725899111
:1044F00008951CD000E000931C060E9447250895F3
:10450000609143067091440641E0E1E5F4E000A1CA
:1045100011A122A133A10E945308089500914806D9
:10452000002319F401E0009348060895009148061D
:10453000002319F000E000934806089522970091A7
:104540004806002309F46DC070DF10919502012325
:1045500009F467C00E94731A00230091960239F093
:10456000002371F401E00093960211E006C00023DD
:1045700039F000E00093960210E001E10E94A00FE4
:104580000E94661A10910003012321F00E946F1A05
:104590000E947C080E945D1A002309F442C00E9418
:1045A000D61310D20E94391A1BD2002319F41DD23F
:1045B000002399F000E008830983AE01E1E5F4E00F
:1045C00000A111A122A133A1000F111F221F331F2F
:1045D0000E947E17002309F0EAD1FBD10023D1F01D
:1045E00000913F06002309F4E2D100E0088309832B
:1045F000AE01E1E5F4E000A111A122A133A1000F79
:10460000111F221F331F0E947E17002319F00881FB
:10461000198160DE75DF00E014D1002311F000E0A5
:10462000C2D0229608950E944E30280102E00E94D6
:104630007601409EC001509E900D00E00E94D10F77
:10464000800F911F0E948815280102E00E947601C8
:10465000A201202F30E08C010E94341BE6E00C9474
:104660005B300E944A30280104E00E94D10F3801DB
:10467000D30119968D010E94D71F902F80E008E08A
:10468000600E781E83010E94D71F800F02E00E94F7
:104690007601402F50E082010E949A2F280100E00D
:1046A0000E94D10F400E511E0E948815480102E061
:1046B0000E94760161E0A401202F30E082010E9477
:1046C000661C282F83010E940520892F282F8D0129
:1046D0000E9405200E943F25EAE00C9457300E947A
:1046E0005030CA01D80102E00E947601E02FF0E0CC
:1046F0003197AE23BF239C018D010E948B15E4E00E
:104700000C945D300E945030CA01D80102E00E9432
:104710007601E02FF0E03197AE23BF239C018D019D
:104720000E94A515E4E00C945D30003040E01407D1
:1047300041E0240740E0340710F000E0089501E074
:10474000089502E00E94760110E00895109195020C
:10475000112319F0000002E3089510913F06112380
:1047600049F4416012E0019FF001E75BF94F40839B
:10477000518314C0113091F44E7F12E0019FF0017B
:10478000E75BF94F40835183402F01E010E00E9426
:10479000A22F10914D06102B10934D0601E00093AF
:1047A0004F0600E0089510919502112319F00000C2
:1047B00002E3089520E012E0019FF001E75BF94F6A
:1047C00020832183402F01E010E00E94A22F00955A
:1047D00010914D06102310934D0601E000934F06F3
:1047E00000E008950E945030A9E4B6E000914F0621
:1047F000002321F106E00E94D10F2D913C911197E9
:104800000E942B2006E00E94D10FC80112962D9124
:104810003C9104968C010E942B2000913F060130B0
:1048200051F406E00E94D10FC80120914D0609966F
:104830008C010E94052000E000934F06E4E00C94F8
:104840005D3010913F06112341F412E0019FF00109
:10485000E75BF94F008101700895113059F4209100
:104860004D06402F01E010E00E94A22F202311F0FE
:1048700001E0089500E008950E944F30C801D90179
:10488000442E0E9411182DDD0E943E1A442041F052
:10489000880F991FAA1FBB1FAC01BD0100E056DFA6
:1048A000A1DF02E00E94D21A0E943F25002311F0EE
:1048B0000E94DC130E944725E5E00C945C300091D7
:1048C0001C06002311F403E20895009195020023D1
:1048D00011F416DE13C00E94561A002319F40E9428
:1048E0004725089504E60CD0002311F40CE3089545
:1048F0000E943F25002311F401E6089500E0089589
:104900000E94503088EE93E0A0E0B0E00E945D1A73
:10491000002311F001E00BC08C019D0181509040FB
:10492000A040B040012B022B032B81F700E0E4E014
:104930000C945D300E94503080E197E2A0E0B0E03E
:104940000E948E1A002311F001E00BC08C019D0122
:1049500081509040A040B040012B022B032B81F7E7
:1049600000E0E4E00C945D300E941118BADC0E9473
:104970003E1A0E94E41A0E94DC130E944725089503
:1049800054DD002311F403E208950E945D1A002310
:1049900011F40E94561A0E94D6130E9411180E9408
:1049A000B61A0E94DC130E944725089508950E94BC
:1049B000E41A0AE0A5DF002311F400E508950E943F
:1049C000472508950E94A51A0093430610934406B4
:1049D0000895ECE1F6E000A505FB00E000F908957C
:1049E000ECE1F6E000A501700895ECE1F6E007A126
:1049F000000F00E0001F0895219701E00093C3021B
:104A00000E94E52569D018E003E00E94542010E8D8
:104A100002E00E94542000E00E946220088337D008
:104A2000002329F500E00E944B1A00E00E9462205A
:104A300008832DD00023D9F400E00093C302BCD03A
:104A400010E802E00E94542000E00E9462200883E7
:104A50001ED0002361F410E802E00E94542002E01E
:104A60000E94622008830881003809F000000FD0FE
:104A70002196089514E003E00E94542008950091C7
:104A8000C402002311F401E0089500E008950091AC
:104A9000C302002319F00E94E22508950091C40288
:104AA00008950093C402002311F000E0089501E08E
:104AB00008958A93ECDF802F882359F000E0F1DF1E
:104AC0009BDF0E94621E0770882319F00E94661EF9
:104AD000802F082F899108959A938A9376986E9AD9
:104AE00009E110E00E943902769A01E010E00E948C
:104AF00039026E98769A02E310E00E9439027698A5
:104B00006E9A09E110E00E943902769A01E010E005
:104B10000E9439026E98769A8FEF9FEF669B06C0CF
:104B200004E610E00E94240201E005C00197082F6E
:104B3000092BA1F700E08991999108950E944D30C9
:104B4000C801A22F432E0091C302002339F08C012B
:104B50000E945526002351F101E029C055240E94EE
:104B6000BE146090E2005092E200F8946E9A0A2F10
:104B7000DC010E94831E6E98769A442029F0042D51
:104B8000DC010E94341F502E6092E20078940E9453
:104B9000C414552009F353FA16F407E105C052FA7C
:104BA00016F409E101C00AE10093C40200E0E7E065
:104BB0000C945A30C3DF08956E98769A00E0009303
:104BC000C4020895009153060895769A6E9A00E003
:104BD0000093500600E200936A0000E00093C100D9
:104BE00000E40093D10004E00093720000E0009321
:104BF00053060895102FE0E5F6E001E000831183ED
:104C000000E0028304830093BE0002E00093C10031
:104C1000789400E412E42FE030E04081413069F400
:104C2000A801B9010150104020403040452B462BCF
:104C3000472B99F703810460038300E00093C100D0
:104C400008950D01D80100E40CBB0CBB04E009BBC6
:104C500008E30093BE00EE9AE0E5F6E000E0018391
:104C60000283048302E0008300E814E82EE130E0D0
:104C70004081442369F0A801B9010150104020404F
:104C80003040452B462B472B99F703810460038363
:104C900001810C9300E00093C1000381002311F413
:104CA00001E001C000E0D00108950E944C30C8012D
:104CB000522E632E442443947090E20000E000934F
:104CC000E2000E94BE14DC016E9A04C0FC01019156
:104CD000CF0190DF052D5A940023C1F76E98769A84
:104CE00004C08D01AEDF1196402E062D6A9400237C
:104CF00011F04420B1F77092E2000E94C414042D18
:104D0000E8E00C9459301A930A931FB700915006AB
:104D1000023031F402E00093C10003E0009350063A
:104D2000EE981FBF099119911895FA93EA932A9367
:104D30001A930A932FB7E0E5F6E0128113951283D8
:104D4000012F1081113001F5013011F476984BC01C
:104D50000A3029F4048100FFF9CF769A44C00B3061
:104D600031F4769A00E000830093C1003CC00181D9
:104D700000FF05C0769A04810395048301C07698EC
:104D80000181069501832FC01081133061F52B9AA4
:104D900010E0669911E02B98013031F4112319F1DC
:104DA0000381016003831FC00A3039F4048101705C
:104DB0000117C9F003810860F5CF0B3049F400E01A
:104DC0000093C1000083112371F403810260EACFD4
:104DD000018106950183112331F00181006801836F
:104DE0000481039504832FBF099119912991E991B9
:104DF000F99118950091D8000F770093D800009191
:104E0000D80000680093D8000091D800006100939A
:104E1000D800789408950091D80000620093D800DB
:104E200002B7007F02BF02B70A6402BF02E109BDF8
:104E300009B5102F10FFFCCFF8940091D8000F7D1A
:104E40000093D8000091E0000E7F0093E0000091F5
:104E5000E000077F0093E0000E94E6280091E20056
:104E600001600093E2000091E20008600093E2001C
:104E7000789408950091D900102F10FF19C0009167
:104E800055060023A9F401E000935506E5E8FAE091
:104E9000008111810260118300830091D8000068B5
:104EA0000093D800B8DF0091E0000E7F0093E0008F
:104EB0000091D900102F10FD1AC000915506013045
:104EC000B1F400E0009355060093840AE5E8FAE0A7
:104ED000008111810460118300830091E000016072
:104EE0000093E0000091D80000620093D800E5E84C
:104EF000FAE000811181012F00FF0DC000811181B6
:104F00001E7F1183008301E00093EA0000E000931C
:104F1000EA000093840A00E00093E9000091E800B1
:104F2000102F13FF02C00E94F12B0895E5ECF2E070
:104F30000481002339F407E516E00083118301E0C2
:104F40000483089500E008950091CA02002311F03F
:104F500001E0089500E00895E5ECF2E000E005834B
:104F60000283038307E516E00083118301E00895BF
:104F70000091C902002311F001E0089500E00895B6
:104F80001B2F2A2FE5ECF2E0A081B1810D91A083C7
:104F9000B183A22FB12F0895F3DF08958A93FCDF28
:104FA000802FFADF282F302F8901899108950E94E0
:104FB0005030F4DFC801A0E0B0E0F0DF8A0FA01F9E
:104FC000B11F8C019D01E4E00C945D300091C5029D
:104FD0001091C6020895E091C502F091C6020083C7
:104FE000E5ECF2E0008111810F5F1F4F0083118318
:104FF000028113810F5F1F4F028313830895E5EC35
:10500000F2E000E00283038307E516E000831183EA
:105010000E94EB150895E5ECF2E022813381200F28
:10502000311F22833383089501E00093CA0208955B
:10503000D2DF01E008950E945130C801F9DFA02FAE
:10504000892F082FF5DF002311F001E001C000E0F7
:10505000A0230A2FE3E00C945E300E944F30D90168
:10506000EADF402E8A2F9B2F8C01E5DF002311F011
:1050700001E001C000E04022042DE5E00C945C302A
:105080000E945030C801D901813002E0900728F019
:10509000000000E007C00D919EDF8C010197012BFD
:1050A000D1F701E0E4E00C945D3005EC12E00895E6
:1050B000E5ECF2E00281138120813181021B130BA8
:1050C00027E536E0020F131F089500E00093C902A0
:1050D00008955AE00136150709F00000302F312BF2
:1050E00069F0F8013181303148F44181342F339532
:1050F000318350E0040F151FF801228308950E94A8
:105100005030C801D901E5DFAB2F2A2F8C01E1DF38
:10511000E4E00C945D300E944E302801CA01DB01AE
:105120009C01EDDF8A2F9B2F9C018201E8DFE6E0E6
:105130000C945B300091610A013019F400E010E03A
:10514000089501E61AE0089501E00093610AE1E69E
:10515000FAE0048915890F5F1F4F048B158B0895A2
:105160000091610A013011F401E0089500E0089512
:10517000E1E6FAE000E000830EE0028300E0038352
:10518000048915890483158304E00183089500913F
:10519000620A089503E61AE008952091EB00216069
:1051A0002093EB000093EC000091ED000270012BC6
:1051B0000093ED000091ED0002600093ED0010916E
:1051C000EE00012F000F00E0001F089500E00093A3
:1051D000E9000091EB00102F00E010FD05C00093E6
:1051E000E90010E202E0D9DF0895EBECF2E004817F
:1051F000002371F00681002311F051E001C050E05E
:105200006085478100811181228133810E9431199B
:1052100008950091CF02002311F00E9456190895BD
:10522000202F0091F1003091F100213869F41630FF
:1052300059F4432F415219F04A9519F005C066D22E
:1052400001C0EDD001E008952132F9F5412F495018
:10525000A9F14A95B9F1465119F0425019F035C0FB
:10526000ACD1F0CF1091E800177F1093E8001091B7
:10527000E8001E7F1093E8000093D002EBECF2E010
:10528000058100FF11C00091CF02002389F401E0E5
:105290000093CF02AADF549A5C9808EC10E00E94B9
:1052A000240254985C9A04C0B4DF00E00093CF025B
:1052B0000091E800102F10FFFBCFC4CF323029F44B
:1052C00019D1C0CF132F35D1BDCF213A41F412509F
:1052D00021F01F5121F4E4D1B5CF41D1B3CF00E08B
:1052E000089501E00093E90010E301EC0E94CD284D
:1052F00002E00093E90010E300EC0E94CD2803E0F7
:105300000093E90010E301EC0E94CD2804E0009333
:10531000E90010E301E80E94CD2805E00093E900D0
:1053200010E300E80E94CD28089500E00895202FA2
:10533000212B79F401E00093E9000091EB0000617A
:105340000093EB0002E00093EA0000E00093EA0023
:1053500011C0013020E0120799F403E00093E90046
:105360000091EB0000610093EB0008E00093EA007D
:105370002093EA000091EB0008600093EB00089591
:105380000230120791F404E00093E9000091EB0071
:1053900000610093EB0000E10093EA002093EA0033
:1053A0000091EB0008600093EB0008950330A9F52D
:1053B000105049F01A9569F01A95B1F01A95D1F08C
:1053C0001A9529F12AC004E000937B0A03E911E051
:1053D00005C00CE000937B0A01E511E00093780A18
:1053E0001093790A01E0089500E200937B0A0DE52D
:1053F00011E0F4CF01E911E00093780A1093790AE3
:1054000001E000937A0A0AE200937B0AEBCF04E101
:1054100000937B0A0DE711E0E1CF00E00895AC01B5
:1054200022970091F1000091F10003E200937B0AC2
:1054300007E911E00093780A1093790A0091F100CE
:1054400008830091F10009830091E800077F009331
:10545000E800888199818432904028F50881009382
:105460007B0A21C0E091780AF091790A04910093B7
:10547000F100E8E7FAE0208131812F5F3F4F208380
:10548000318300917B0A0A9500937B0A00917B0A85
:10549000002321F0012F1395003221F70091E8003D
:1054A0000E7F0093E80000917B0A002361F00091D9
:1054B000E800102F12FD07C00091E800102F10FF28
:1054C000FBCF10E0E3CF0091E800102F12FD05C0E4
:1054D0000091E800102F12FFFBCF0091E8000B7F36
:1054E0000093E8000091E8000F770093E80022960F
:1054F000CA0108950091E800077F0093E800009139
:10550000E8000E7F0093E8000091E800102F12FFE2
:10551000FBCF0091E8000B7F0093E8000091E800CA
:105520000F770093E8000091E8000E7F0093E800F9
:1055300008950091F1000091F1000091E800077FCB
:105540000093E8001093770A0091E8000E7F009323
:10555000E8000091E800102F10FFFBCF089522977C
:105560000091F1000091F1000091F1000883009199
:10557000F10009830091E800077F0093E8000881AB
:105580001981012B49F00091770A0093F1000091F5
:10559000E8000E7F0093E8000091E800102F12FF52
:1055A000FBCF0091E8000B7F0093E8000091E8003A
:1055B0000F770093E800229608950091E800077F96
:1055C0000093E8000091E800102F12FFFBCF00913C
:1055D000F1000093CB020091F1000093CC02009106
:1055E000F1000093CD020091F1000093CE020091F2
:1055F000F1000093D1020091F1000093D4020091D8
:10560000F1000093D5020091E8000B7F0093E800C1
:105610000091E8000F770093E8000091E8000E7F0A
:105620000093E8000091E800102F10FFFBCFEBEC97
:10563000F2E000811181228133810E94781900916A
:10564000D102002311F001E001C000E00E946E19B8
:105650000091D502055029F00A9529F00A9529F004
:1056600006C000E005C001E003C002E001C003E0A5
:105670000093D3020091D3020E945C190091D402DE
:10568000015021F00A9521F000E003C003E001C0C1
:1056900002E00093D2020091D2020E94651908959F
:1056A0000091E800077F0093E800EBECF2E0008156
:1056B0000093F10001810093F10002810093F10059
:1056C00003810093F10006810093F10001850093AE
:1056D000F10002850093F1000091E8000E7F009335
:1056E000E8000091E800102F10FFFBCF0091E800C8
:1056F000102F12FFFBCF0091E8000B7F0093E80012
:105700000091E8000F770093E8000895AC0122971C
:105710000091F1000091F10009E000937B0A08EF8D
:1057200010E00093780A1093790A0091F100088341
:105730000091F10009830091E800077F0093E800E1
:10574000888199818A30904028F5088100937B0AEE
:1057500021C0E091780AF091790A04910093F10058
:10576000E8E7FAE0208131812F5F3F4F20833183CA
:1057700000917B0A0A9500937B0A00917B0A002323
:1057800021F0012F1395003221F70091E8000E7FE0
:105790000093E80000917B0A002361F00091E8008B
:1057A000102F12FD07C00091E800102F10FFFBCF53
:1057B00010E0E3CF0091E800102F12FD05C000912A
:1057C000E800102F12FFFBCF0091E8000B7F009341
:1057D000E8000091E8000F770093E8002296CA01E4
:1057E00008959A938A930091E8000B7F0093E80054
:1057F0008091F1009091F100092F005049F10A9534
:1058000009F1025011F10250A9F00A9549F0025035
:1058100069F00A9599F00A95F1F00A9501F124C012
:10582000803811F56ED0002391F51EC08038E1F468
:1058300035D12DC08823C1F42DD029C08823A1F4EF
:1058400047D0F1CF082FD2D1EECF082F8ED1EBCF9A
:10585000082F47D1E8CF813839F40ED2E4CF813018
:1058600019F43BD2002399F4192F082F0E94102914
:10587000002369F40091EB0000620093EB000091BB
:10588000E800077F0093E80001E000937C0A89911B
:10589000999108951091F1000091E30000781F772D
:1058A000012B0093E3000091E800077F0093E800DC
:1058B0000091E8000E7F0093E8000091E800102FAF
:1058C00010FFFBCF0091E30000680093E300089510
:1058D0001091F100123010F000E008950091E800FE
:1058E000077F0093E8001093840A0091E8000E7F80
:1058F0000093E8000091840A0E947129469A01E011
:1059000008950E944E30649790E01091F10000914C
:10591000F100202F215019F02A9549F12EC002E103
:1059200000937B0A04ED10E0E8E7FAE000831183BE
:105930000091F1000091F1000091F10008830091C5
:10594000F10009830091E800077F0093E80008E771
:10595000402E0AE0502E00917B0A10E02881398108
:105960000217130780F40F7189F491E00FC00BE662
:1059700000937B0A06EE10E0D7CF0E94D6290023C1
:10598000B9F600E087C0088100937B0A0091E80027
:105990000F7E0093E800A0E080917B0A8E010E94B8
:1059A0009B138E0105C02091E8002E7F2093E80014
:1059B00020917B0A222309F449C02091E800322F6C
:1059C00034FD44C02091E800322F30FD05C0209105
:1059D000E800322F34FFF6CF40E012C0F201208100
:1059E0003181F90124912093F100F201208131816C
:1059F0002F5F3F4F20833183F20123812A95238338
:105A000050917B0A5523E9F0242F43952032C9F0A9
:105A100020917A0A222311F3252F30E0E82FF0E0BD
:105A200031972E173F07D4F62A2FA39520FB1EF49B
:105A30003093F100E1CFF80121918F012093F10023
:105A4000DBCF2091E800322F34FFADCF00E0009390
:105A50007A0A913079F40091E800102F14FD0AC001
:105A60000091E800102F10FFFBCF0091E8000E7F9F
:105A70000093E8000091E800102F14FFFBCF009185
:105A8000E8000F7E0093E8000091E8000B7F009390
:105A9000E80001E06496E6E00C945B300091E800D9
:105AA000077F0093E8000091840A0093F1000091C1
:105AB000E8000E7F0093E8000091E8000F77009364
:105AC000E8000091E800102F12FFFBCF0091E800E2
:105AD0000B7F0093E8000091E8000F770093E80047
:105AE00008951091F1001091F1002091F1000058FB
:105AF00029F00A9529F10A9551F135C00091E80085
:105B0000077F0093E8000091830A0093F10000E012
:105B10000093F1000091E8000E7F0093E8000091EF
:105B2000E800102F12FFFBCF0091E8000B7F0093DD
:105B3000E8000091E8000F770093E80001E0089585
:105B40000091E800077F0093E80000E0DECF0091BD
:105B5000E800077F0093E8002F7730E0F901E45870
:105B6000F54F0081D2CF00E00895005019F00250A7
:105B700029F002C00091F10000E008950091F100C9
:105B80001091F1000023C1F70091F1000F7751F45B
:105B90001091EB0010621093EB001091E800177F5A
:105BA0001093E8000093E9001091EB00212F20FDF5
:105BB00004C000E00093E90008951091EB0010622A
:105BC0001093EB0010E01093E90021E0F801E45895
:105BD000F54F20830091E800077F0093E8000091D3
:105BE000E8000E7F0093E80001E00895005019F0EE
:105BF000025029F002C00091F10000E008950091E8
:105C0000F1001091F1000023C1F72091F1002F77EE
:105C10002093E9000091EB00102F10FD04C000E07C
:105C20000093E9000895A1F00091EB00006100935A
:105C3000EB00422F01E010E00E94A22F0093EA0047
:105C400000E00093EA000091EB0008600093EB0095
:105C500000E00093E90030E0F901E458F54F0083DB
:105C60000091E800077F0093E8000091E8000E7FB4
:105C70000093E80001E0089522970091F10000915F
:105C8000F1001091F10018831091F10019830023A5
:105C900011F50091E800077F0093E8000881198161
:105CA0000E9495290093F1000091E8000E7F009377
:105CB000E8000091E800102F12FFFBCF0091E800F0
:105CC0000B7F0093E8000091E8000F770093E80055
:105CD00001E02296089500E0FCCF22972091F10088
:105CE0000091F1001091F10018831091F1001983D7
:105CF000002311F000E017C00091E800077F009337
:105D0000E800088119810E94972900E00093E900CA
:105D10000091E8000E7F0093E8000091E800102F4A
:105D200010FFFBCF01E0229608950091D70001609B
:105D30000093D7000E94FA2608950E943A270895FA
:105D40008A93FA93EA933A922A921A920A927A934F
:105D50006A935A934A933A932A931A930A938FB762
:105D60000091E100102F12FF0AC00091E200102FF5
:105D700012FF05C00BEF0093E1000E944813009151
:105D8000E100102F10FF2BC00091E200102F10FF38
:105D900026C001E0009356060FEE0093E100E5E80F
:105DA000FAE0008111810062118300830EEF0093FD
:105DB000E1000091E20000610093E2000091E20046
:105DC0000F7D0093E2000091D80000620093D8009C
:105DD00009B50D7F09BD00E009BD0E944E13009179
:105DE000E100102F14FF49C00091E200102F14FFB2
:105DF00044C009B5102F10FD0CC002B7007F02BFD0
:105E000002B70A6402BF02E109BD09B5102F10FFF5
:105E1000FCCF0091D8000F7D0093D8000FEE0093C7
:105E2000E10000915606002341F10091E20000627A
:105E30000093E2000091E20008600093E2000FEEA0
:105E40000093E1000091E2000F7E0093E200E5E89C
:105E5000FAE0008111810064118300830091E20067
:105E600001600093E2000091E20000620093E20012
:105E70000091E20008600093E2000091E100102F21
:105E800015FF1CC00091E200102F15FF17C000E0A5
:105E9000009356060091E2000F7E0093E2000FEDA2
:105EA0000093E1000091E2000F7D0093E200E5E83D
:105EB000FAE0008111810068118300830091E10004
:105EC000102F13FF11C00091E200102F13FF0CC020
:105ED00007EF0093E1000E94E628E5E8FAE0008180
:105EE00011811160118300838FBF0991199129914C
:105EF0003991499159916991799109901990299015
:105F00003990E991F9918991189500008895FECF13
:105F10000FE70DBF02E00EBFC0E8D1E00E9466307F
:105F2000002311F00E949C300E94E2130E94852FF2
:105F30000C94852F149F102D059F100D049F002D8C
:105F4000110D08954A951AF0000F111FFBCF089507
:105F500000241124EFE0001F111F001C111C041667
:105F6000150610F0041A150AEA95AAF7001F111F6A
:105F7000A0010095109508954A952AF03695279529
:105F800017950795F9CF08954A952AF035952795E5
:105F900017950795F9CF0895002411241001E0E228
:105FA000EA9592F0001F111F221F331F001C111CC5
:105FB000221C331C041615062606370688F3041A1D
:105FC000150A260A370AECCF001F111F221F331FA4
:105FD000A001B10100951095209530950895759117
:105FE000659155914591159011FA25903590089538
:105FF000F9DF041B10E003C0F4DF041B150B20E0E5
:1060000030E005C0ECDF041B150B260B370BB8F096
:1060100010FC17C045910590E00FF11F0417100503
:1060200040E02407340758F436F404910024F101C9
:10603000E01BF0090994E00FF11F25903590F10164
:10604000099411F4D6F7F1CF31960EF0319650E065
:1060500060E070E045914B3F48F089F34F3F29F0F5
:106060004E3F11F07591659155914591041B150BAB
:10607000260B370B39F318F3E7CFAF93BF93D80153
:1060800005900D9241505040D9F7BF91AF910895BE
:10609000BA92AA929A928A927A926A925A924A9260
:1060A000BA93AA939A938A930895BB84AA849984F5
:1060B00088847F806E805D804C80BB81AA819981BD
:1060C0008881F0E0EC0FFD1FEF01089501E00895D5
:1060D000BD01D80104C02F5F3F4F41505040042FF5
:1060E000052B51F00D91F90110810117A1F310E07A
:1060F0002081021B104002C000E010E0DB01089587
:106100000D01D80104C0F90161919F016D93BA019D
:1061100041505040672BB9F7D001089520E006D0D8
:10612000E9F70895259102D0E9F708952D930150DC
:106130001040202F212B08958CE691E6FC0105915B
:106140001491FC013296A591B491FC0134962591ED
:106150003491422F432B19F0F901E4DF01C0DEDF57
:10616000069611E68837910748F30895B107D602DD
:10617000000056008002786146464646464646463E
:1061800046464646464646464646464600000000C7
:106190000000000000000000000188130000000063
:1061A0000010010000010055FF4218451848184B27
:1061B000184E185018503A00443A00010057060093
:1061C0000000008025000000000000030008FFFF21
:1061D000FFFFFFFFFFFFFFFFFFFFFFFFFFFFFFFFCF
:1061E000FFFFFFFFFFFFFFFFFFFFFFFFFFFFFFFFBF
:1061F000FFFFFFFFFFFFFFFFFFFFFFFFFFFFFFFFAF
:10620000FFFFFFFFFFFFFFFFFFFFFFFFFFFFFFFF9E
:00000001FF
